{
  "contractName": "Escrow",
  "abi": [
    {
      "constant": true,
      "inputs": [],
      "name": "buyerOk",
      "outputs": [
        {
          "name": "",
          "type": "uint256"
        }
      ],
      "payable": false,
      "stateMutability": "view",
      "type": "function"
    },
    {
      "constant": true,
      "inputs": [],
      "name": "sellerOk",
      "outputs": [
        {
          "name": "",
          "type": "uint256"
        }
      ],
      "payable": false,
      "stateMutability": "view",
      "type": "function"
    },
    {
      "inputs": [
        {
          "name": "_buyer",
          "type": "address"
        },
        {
          "name": "_seller",
          "type": "address"
        },
        {
          "name": "_productId",
          "type": "bytes32"
        }
      ],
      "payable": true,
      "stateMutability": "payable",
      "type": "constructor"
    },
    {
      "constant": false,
      "inputs": [],
      "name": "accept",
      "outputs": [],
      "payable": false,
      "stateMutability": "nonpayable",
      "type": "function"
    },
    {
      "constant": false,
      "inputs": [],
      "name": "reject",
      "outputs": [],
      "payable": false,
      "stateMutability": "nonpayable",
      "type": "function"
    }
  ],
  "bytecode": "0x6060604052426004556040516060806107ff8339810160405280805190602001909190805190602001909190805190602001909190505060003411151561004557600080fd5b336000806101000a81548173ffffffffffffffffffffffffffffffffffffffff021916908373ffffffffffffffffffffffffffffffffffffffff16021790555082600160006101000a81548173ffffffffffffffffffffffffffffffffffffffff021916908373ffffffffffffffffffffffffffffffffffffffff16021790555081600260006101000a81548173ffffffffffffffffffffffffffffffffffffffff021916908373ffffffffffffffffffffffffffffffffffffffff16021790555080600381600019169055505050506106db806101246000396000f300606060405260043610610062576000357c0100000000000000000000000000000000000000000000000000000000900463ffffffff1680632852b71c146100675780634dc415de1461007c57806353496a7514610091578063c5b0e6fb146100ba575b600080fd5b341561007257600080fd5b61007a6100e3565b005b341561008757600080fd5b61008f61049a565b005b341561009c57600080fd5b6100a46106a3565b6040518082815260200191505060405180910390f35b34156100c557600080fd5b6100cd6106a9565b6040518082815260200191505060405180910390f35b6000600160009054906101000a900473ffffffffffffffffffffffffffffffffffffffff1673ffffffffffffffffffffffffffffffffffffffff163373ffffffffffffffffffffffffffffffffffffffff16148061018e5750600260009054906101000a900473ffffffffffffffffffffffffffffffffffffffff1673ffffffffffffffffffffffffffffffffffffffff163373ffffffffffffffffffffffffffffffffffffffff16145b151561019957600080fd5b6000809054906101000a900473ffffffffffffffffffffffffffffffffffffffff169050600260009054906101000a900473ffffffffffffffffffffffffffffffffffffffff1673ffffffffffffffffffffffffffffffffffffffff163373ffffffffffffffffffffffffffffffffffffffff1614801561021c57506000600654145b156102e157426006819055508073ffffffffffffffffffffffffffffffffffffffff16630ed7193260035460026000604051602001526040518363ffffffff167c010000000000000000000000000000000000000000000000000000000002815260040180836000191660001916815260200182600381111561029b57fe5b60ff16815260200192505050602060405180830381600087803b15156102c057600080fd5b6102c65a03f115156102d157600080fd5b5050506040518051905050610402565b600160009054906101000a900473ffffffffffffffffffffffffffffffffffffffff1673ffffffffffffffffffffffffffffffffffffffff163373ffffffffffffffffffffffffffffffffffffffff1614801561034057506000600554145b1561040157426005819055508073ffffffffffffffffffffffffffffffffffffffff16630ed7193260035460036000604051602001526040518363ffffffff167c01000000000000000000000000000000000000000000000000000000000281526004018083600019166000191681526020018260038111156103bf57fe5b60ff16815260200192505050602060405180830381600087803b15156103e457600080fd5b6102c65a03f115156103f557600080fd5b50505060405180519050505b5b6000600554141580156104185750600060065414155b1561049757600260009054906101000a900473ffffffffffffffffffffffffffffffffffffffff1673ffffffffffffffffffffffffffffffffffffffff166108fc3073ffffffffffffffffffffffffffffffffffffffff16319081150290604051600060405180830381858888f19350505050151561049657600080fd5b5b50565b6000600160009054906101000a900473ffffffffffffffffffffffffffffffffffffffff1673ffffffffffffffffffffffffffffffffffffffff163373ffffffffffffffffffffffffffffffffffffffff1614806105455750600260009054906101000a900473ffffffffffffffffffffffffffffffffffffffff1673ffffffffffffffffffffffffffffffffffffffff163373ffffffffffffffffffffffffffffffffffffffff16145b151561055057600080fd5b6000809054906101000a900473ffffffffffffffffffffffffffffffffffffffff1690508073ffffffffffffffffffffffffffffffffffffffff16630ed71932600354600080604051602001526040518363ffffffff167c01000000000000000000000000000000000000000000000000000000000281526004018083600019166000191681526020018260038111156105e657fe5b60ff16815260200192505050602060405180830381600087803b151561060b57600080fd5b6102c65a03f1151561061c57600080fd5b5050506040518051905050600160009054906101000a900473ffffffffffffffffffffffffffffffffffffffff1673ffffffffffffffffffffffffffffffffffffffff166108fc3073ffffffffffffffffffffffffffffffffffffffff16319081150290604051600060405180830381858888f1935050505015156106a057600080fd5b50565b60055481565b600654815600a165627a7a72305820cb26627691cb7b2921fb27ebcaf218dc354babb7f3813d7da2b7ec0257a3684a0029",
  "source": "pragma solidity ^0.4.17;\n\nimport \"./Store.sol\";\n\ncontract Escrow {\n    address owner;\n    address buyer;\n    address seller;\n    bytes32 productId;\n    uint createdAt = now;\n    uint public buyerOk;\n    uint public sellerOk;\n\n    modifier onlyParticipant {\n        require(msg.sender == buyer || msg.sender == seller);\n        _;\n    }\n\n    function Escrow(address _buyer, address _seller, bytes32 _productId) public payable {\n        require(msg.value > 0);\n        owner = msg.sender;\n        buyer = _buyer;\n        seller = _seller;\n        productId = _productId;\n    }\n\n    function accept() public onlyParticipant {\n        Store store = Store(owner);\n\n        if (msg.sender == seller && sellerOk == 0) {\n            sellerOk = now;\n            store.updateProductStatus(productId, Store.ProductStatus.Shipping);\n        } else if (msg.sender == buyer && buyerOk == 0) {\n            buyerOk = now;\n            store.updateProductStatus(productId, Store.ProductStatus.Sold);\n        }\n\n        if (buyerOk != 0 && sellerOk != 0) {\n            seller.transfer(address(this).balance);\n        }\n    }\n\n    function reject() public onlyParticipant {\n        Store store = Store(owner);\n        store.updateProductStatus(productId, Store.ProductStatus.Available);\n        buyer.transfer(address(this).balance);\n    }\n}\n",
  "sourcePath": "/Users/nhahoang/sources/coderschool/blockchain/assignments/week2/contracts/Escrow.sol",
  "compiler": {
    "name": "solc",
    "version": "0.4.19+commit.c4cbbb05.Emscripten.clang"
  },
  "schemaVersion": "2.0.0",
  "updatedAt": "2018-03-24T21:23:24.808Z"
}