{
  "contractName": "Store",
  "abi": [
    {
      "inputs": [],
      "payable": false,
      "stateMutability": "nonpayable",
      "type": "constructor"
    },
    {
      "anonymous": false,
      "inputs": [
        {
          "indexed": false,
          "name": "id",
          "type": "bytes32"
        },
        {
          "indexed": false,
          "name": "index",
          "type": "uint256"
        },
        {
          "indexed": false,
          "name": "name",
          "type": "string"
        },
        {
          "indexed": false,
          "name": "category",
          "type": "string"
        },
        {
          "indexed": false,
          "name": "imageLink",
          "type": "string"
        },
        {
          "indexed": false,
          "name": "descLink",
          "type": "string"
        },
        {
          "indexed": false,
          "name": "price",
          "type": "uint256"
        },
        {
          "indexed": false,
          "name": "status",
          "type": "uint8"
        }
      ],
      "name": "ProductCreated",
      "type": "event"
    },
    {
      "anonymous": false,
      "inputs": [
        {
          "indexed": false,
          "name": "id",
          "type": "bytes32"
        },
        {
          "indexed": false,
          "name": "index",
          "type": "uint256"
        },
        {
          "indexed": false,
          "name": "name",
          "type": "string"
        },
        {
          "indexed": false,
          "name": "category",
          "type": "string"
        },
        {
          "indexed": false,
          "name": "imageLink",
          "type": "string"
        },
        {
          "indexed": false,
          "name": "descLink",
          "type": "string"
        },
        {
          "indexed": false,
          "name": "price",
          "type": "uint256"
        },
        {
          "indexed": false,
          "name": "status",
          "type": "uint8"
        }
      ],
      "name": "ProductUpdated",
      "type": "event"
    },
    {
      "anonymous": false,
      "inputs": [
        {
          "indexed": false,
          "name": "productId",
          "type": "bytes32"
        },
        {
          "indexed": false,
          "name": "seller",
          "type": "address"
        },
        {
          "indexed": false,
          "name": "buyer",
          "type": "address"
        },
        {
          "indexed": false,
          "name": "escrow",
          "type": "address"
        }
      ],
      "name": "OrderCreated",
      "type": "event"
    },
    {
      "constant": false,
      "inputs": [
        {
          "name": "name",
          "type": "string"
        },
        {
          "name": "category",
          "type": "string"
        },
        {
          "name": "imageLink",
          "type": "string"
        },
        {
          "name": "descLink",
          "type": "string"
        },
        {
          "name": "price",
          "type": "uint256"
        }
      ],
      "name": "addProduct",
      "outputs": [
        {
          "name": "",
          "type": "uint256"
        }
      ],
      "payable": false,
      "stateMutability": "nonpayable",
      "type": "function"
    },
    {
      "constant": false,
      "inputs": [
        {
          "name": "id",
          "type": "bytes32"
        }
      ],
      "name": "placeOrder",
      "outputs": [],
      "payable": true,
      "stateMutability": "payable",
      "type": "function"
    },
    {
      "constant": true,
      "inputs": [
        {
          "name": "id",
          "type": "bytes32"
        }
      ],
      "name": "isProduct",
      "outputs": [
        {
          "name": "",
          "type": "bool"
        }
      ],
      "payable": false,
      "stateMutability": "view",
      "type": "function"
    },
    {
      "constant": true,
      "inputs": [
        {
          "name": "id",
          "type": "bytes32"
        }
      ],
      "name": "getProduct",
      "outputs": [
        {
          "name": "",
          "type": "string"
        },
        {
          "name": "",
          "type": "string"
        },
        {
          "name": "",
          "type": "string"
        },
        {
          "name": "",
          "type": "string"
        },
        {
          "name": "",
          "type": "uint256"
        },
        {
          "name": "",
          "type": "uint256"
        },
        {
          "name": "",
          "type": "uint8"
        }
      ],
      "payable": false,
      "stateMutability": "view",
      "type": "function"
    },
    {
      "constant": true,
      "inputs": [],
      "name": "getProductCount",
      "outputs": [
        {
          "name": "",
          "type": "uint256"
        }
      ],
      "payable": false,
      "stateMutability": "view",
      "type": "function"
    },
    {
      "constant": true,
      "inputs": [
        {
          "name": "index",
          "type": "uint256"
        }
      ],
      "name": "getProductIdAt",
      "outputs": [
        {
          "name": "",
          "type": "bytes32"
        }
      ],
      "payable": false,
      "stateMutability": "view",
      "type": "function"
    },
    {
      "constant": false,
      "inputs": [
        {
          "name": "id",
          "type": "bytes32"
        },
        {
          "name": "status",
          "type": "uint8"
        }
      ],
      "name": "updateProductStatus",
      "outputs": [
        {
          "name": "",
          "type": "bool"
        }
      ],
      "payable": false,
      "stateMutability": "nonpayable",
      "type": "function"
    }
  ],
  "bytecode": "0x6060604052341561000f57600080fd5b336000806101000a81548173ffffffffffffffffffffffffffffffffffffffff021916908373ffffffffffffffffffffffffffffffffffffffff160217905550611f428061005e6000396000f300606060405260043610610083576000357c0100000000000000000000000000000000000000000000000000000000900463ffffffff1680630ed719321461008857806325dfbfba146100d35780633a20e9df146102165780634a348da91461041d5780635f65faf11461044657806398a6dd5014610485578063d1241e67146104a1575b600080fd5b341561009357600080fd5b6100b960048080356000191690602001909190803560ff169060200190919050506104e0565b604051808215151515815260200191505060405180910390f35b34156100de57600080fd5b610200600480803590602001908201803590602001908080601f0160208091040260200160405190810160405280939291908181526020018383808284378201915050505050509190803590602001908201803590602001908080601f0160208091040260200160405190810160405280939291908181526020018383808284378201915050505050509190803590602001908201803590602001908080601f0160208091040260200160405190810160405280939291908181526020018383808284378201915050505050509190803590602001908201803590602001908080601f0160208091040260200160405190810160405280939291908181526020018383808284378201915050505050509190803590602001909190505061087c565b6040518082815260200191505060405180910390f35b341561022157600080fd5b61023b600480803560001916906020019091905050610e40565b604051808060200180602001806020018060200188815260200187815260200186600381111561026757fe5b60ff16815260200185810385528c818151815260200191508051906020019080838360005b838110156102a757808201518184015260208101905061028c565b50505050905090810190601f1680156102d45780820380516001836020036101000a031916815260200191505b5085810384528b818151815260200191508051906020019080838360005b8381101561030d5780820151818401526020810190506102f2565b50505050905090810190601f16801561033a5780820380516001836020036101000a031916815260200191505b5085810383528a818151815260200191508051906020019080838360005b83811015610373578082015181840152602081019050610358565b50505050905090810190601f1680156103a05780820380516001836020036101000a031916815260200191505b50858103825289818151815260200191508051906020019080838360005b838110156103d95780820151818401526020810190506103be565b50505050905090810190601f1680156104065780820380516001836020036101000a031916815260200191505b509b50505050505050505050505060405180910390f35b341561042857600080fd5b6104306111e4565b6040518082815260200191505060405180910390f35b341561045157600080fd5b61046b6004808035600019169060200190919050506111f1565b604051808215151515815260200191505060405180910390f35b61049f600480803560001916906020019091905050611254565b005b34156104ac57600080fd5b6104c260048080359060200190919050506115d9565b60405180826000191660001916815260200191505060405180910390f35b60006104eb836111f1565b15156104f657600080fd5b8160016000856000191660001916815260200190815260200160002060060160006101000a81548160ff0219169083600381111561053057fe5b02179055507f17c18b5c0c3c0f1613b1b9b17e8ae203a66135d925c1d7fbaed0e5e02208fba98360016000866000191660001916815260200190815260200160002060050154600160008760001916600019168152602001908152602001600020600001600160008860001916600019168152602001908152602001600020600101600160008960001916600019168152602001908152602001600020600201600160008a60001916600019168152602001908152602001600020600301600160008b6000191660001916815260200190815260200160002060040154896040518089600019166000191681526020018881526020018060200180602001806020018060200187815260200186600381111561064857fe5b60ff16815260200185810385528b8181546001816001161561010002031660029004815260200191508054600181600116156101000203166002900480156106d15780601f106106a6576101008083540402835291602001916106d1565b820191906000526020600020905b8154815290600101906020018083116106b457829003601f168201915b505085810384528a8181546001816001161561010002031660029004815260200191508054600181600116156101000203166002900480156107545780601f1061072957610100808354040283529160200191610754565b820191906000526020600020905b81548152906001019060200180831161073757829003601f168201915b50508581038352898181546001816001161561010002031660029004815260200191508054600181600116156101000203166002900480156107d75780601f106107ac576101008083540402835291602001916107d7565b820191906000526020600020905b8154815290600101906020018083116107ba57829003601f168201915b505085810382528881815460018160011615610100020316600290048152602001915080546001816001161561010002031660029004801561085a5780601f1061082f5761010080835404028352916020019161085a565b820191906000526020600020905b81548152906001019060200180831161083d57829003601f168201915b50509c5050505050505050505050505060405180910390a16001905092915050565b6000806000809054906101000a900473ffffffffffffffffffffffffffffffffffffffff1673ffffffffffffffffffffffffffffffffffffffff163373ffffffffffffffffffffffffffffffffffffffff161415156108da57600080fd5b86868686866040518086805190602001908083835b60208310151561091457805182526020820191506020810190506020830392506108ef565b6001836020036101000a03801982511681845116808217855250505050505090500185805190602001908083835b6020831015156109675780518252602082019150602081019050602083039250610942565b6001836020036101000a03801982511681845116808217855250505050505090500184805190602001908083835b6020831015156109ba5780518252602082019150602081019050602083039250610995565b6001836020036101000a03801982511681845116808217855250505050505090500183805190602001908083835b602083101515610a0d57805182526020820191506020810190506020830392506109e8565b6001836020036101000a0380198251168184511680821785525050505050509050018281526020019550505050505060405180910390209050610a4f816111f1565b151515610a5b57600080fd5b866001600083600019166000191681526020019081526020016000206000019080519060200190610a8d9291906115fd565b50856001600083600019166000191681526020019081526020016000206001019080519060200190610ac09291906115fd565b50846001600083600019166000191681526020019081526020016000206002019080519060200190610af39291906115fd565b50836001600083600019166000191681526020019081526020016000206003019080519060200190610b269291906115fd565b508260016000836000191660001916815260200190815260200160002060040181905550600160038054806001018281610b60919061167d565b91600052602060002090016000849091909150906000191690550360016000836000191660001916815260200190815260200160002060050181905550600060016000836000191660001916815260200190815260200160002060060160006101000a81548160ff02191690836003811115610bd857fe5b02179055507fb7b99263cf335df2fdf645c70004f0f70255bb54ba63c8b0afabdb695db55fbb81600160008460001916600019168152602001908152602001600020600501548989898989600060405180896000191660001916815260200188815260200180602001806020018060200180602001878152602001866003811115610c5f57fe5b60ff16815260200185810385528b818151815260200191508051906020019080838360005b83811015610c9f578082015181840152602081019050610c84565b50505050905090810190601f168015610ccc5780820380516001836020036101000a031916815260200191505b5085810384528a818151815260200191508051906020019080838360005b83811015610d05578082015181840152602081019050610cea565b50505050905090810190601f168015610d325780820380516001836020036101000a031916815260200191505b50858103835289818151815260200191508051906020019080838360005b83811015610d6b578082015181840152602081019050610d50565b50505050905090810190601f168015610d985780820380516001836020036101000a031916815260200191505b50858103825288818151815260200191508051906020019080838360005b83811015610dd1578082015181840152602081019050610db6565b50505050905090810190601f168015610dfe5780820380516001836020036101000a031916815260200191505b509c5050505050505050505050505060405180910390a16001600082600019166000191681526020019081526020016000206005015491505095945050505050565b610e486116a9565b610e506116a9565b610e586116a9565b610e606116a9565b6000806000610e6e886111f1565b1515610e7957600080fd5b600160008960001916600019168152602001908152602001600020600001600160008a60001916600019168152602001908152602001600020600101600160008b60001916600019168152602001908152602001600020600201600160008c60001916600019168152602001908152602001600020600301600160008d6000191660001916815260200190815260200160002060040154600160008e6000191660001916815260200190815260200160002060050154600160008f6000191660001916815260200190815260200160002060060160009054906101000a900460ff16868054600181600116156101000203166002900480601f016020809104026020016040519081016040528092919081815260200182805460018160011615610100020316600290048015610ff05780601f10610fc557610100808354040283529160200191610ff0565b820191906000526020600020905b815481529060010190602001808311610fd357829003601f168201915b50505050509650858054600181600116156101000203166002900480601f01602080910402602001604051908101604052809291908181526020018280546001816001161561010002031660029004801561108c5780601f106110615761010080835404028352916020019161108c565b820191906000526020600020905b81548152906001019060200180831161106f57829003601f168201915b50505050509550848054600181600116156101000203166002900480601f0160208091040260200160405190810160405280929190818152602001828054600181600116156101000203166002900480156111285780601f106110fd57610100808354040283529160200191611128565b820191906000526020600020905b81548152906001019060200180831161110b57829003601f168201915b50505050509450838054600181600116156101000203166002900480601f0160208091040260200160405190810160405280929190818152602001828054600181600116156101000203166002900480156111c45780601f10611199576101008083540402835291602001916111c4565b820191906000526020600020905b8154815290600101906020018083116111a757829003601f168201915b505050505093509650965096509650965096509650919395979092949650565b6000600380549050905090565b6000806003805490501415611209576000905061124f565b816000191660036001600085600019166000191681526020019081526020016000206005015481548110151561123b57fe5b906000526020600020900154600019161490505b919050565b6000806000611262846111f1565b151561126d57600080fd5b60016000856000191660001916815260200190815260200160002060040154341015151561129a57600080fd5b600060038111156112a757fe5b60016000866000191660001916815260200190815260200160002060060160009054906101000a900460ff1660038111156112de57fe5b1415156112ea57600080fd5b6000809054906101000a900473ffffffffffffffffffffffffffffffffffffffff1692503391503482848661131d6116bd565b808473ffffffffffffffffffffffffffffffffffffffff1673ffffffffffffffffffffffffffffffffffffffff1681526020018373ffffffffffffffffffffffffffffffffffffffff1673ffffffffffffffffffffffffffffffffffffffff168152602001826000191660001916815260200193505050506040518091039082f08015156113aa57600080fd5b905090508360026000866000191660001916815260200190815260200160002060000181600019169055508260026000866000191660001916815260200190815260200160002060010160006101000a81548173ffffffffffffffffffffffffffffffffffffffff021916908373ffffffffffffffffffffffffffffffffffffffff1602179055508160026000866000191660001916815260200190815260200160002060020160006101000a81548173ffffffffffffffffffffffffffffffffffffffff021916908373ffffffffffffffffffffffffffffffffffffffff1602179055508060026000866000191660001916815260200190815260200160002060030160006101000a81548173ffffffffffffffffffffffffffffffffffffffff021916908373ffffffffffffffffffffffffffffffffffffffff1602179055506114f78460016104e0565b507f3a37abb73784c07cf521474fe4f006908d6ffb755290433efea1ba004fa29e58848484846040518085600019166000191681526020018473ffffffffffffffffffffffffffffffffffffffff1673ffffffffffffffffffffffffffffffffffffffff1681526020018373ffffffffffffffffffffffffffffffffffffffff1673ffffffffffffffffffffffffffffffffffffffff1681526020018273ffffffffffffffffffffffffffffffffffffffff1673ffffffffffffffffffffffffffffffffffffffff16815260200194505050505060405180910390a150505050565b60006003828154811015156115ea57fe5b9060005260206000209001549050919050565b828054600181600116156101000203166002900490600052602060002090601f016020900481019282601f1061163e57805160ff191683800117855561166c565b8280016001018555821561166c579182015b8281111561166b578251825591602001919060010190611650565b5b50905061167991906116cd565b5090565b8154818355818115116116a4578183600052602060002091820191016116a391906116f2565b5b505050565b602060405190810160405280600081525090565b6040516107ff8061171883390190565b6116ef91905b808211156116eb5760008160009055506001016116d3565b5090565b90565b61171491905b808211156117105760008160009055506001016116f8565b5090565b9056006060604052426004556040516060806107ff8339810160405280805190602001909190805190602001909190805190602001909190505060003411151561004557600080fd5b336000806101000a81548173ffffffffffffffffffffffffffffffffffffffff021916908373ffffffffffffffffffffffffffffffffffffffff16021790555082600160006101000a81548173ffffffffffffffffffffffffffffffffffffffff021916908373ffffffffffffffffffffffffffffffffffffffff16021790555081600260006101000a81548173ffffffffffffffffffffffffffffffffffffffff021916908373ffffffffffffffffffffffffffffffffffffffff16021790555080600381600019169055505050506106db806101246000396000f300606060405260043610610062576000357c0100000000000000000000000000000000000000000000000000000000900463ffffffff1680632852b71c146100675780634dc415de1461007c57806353496a7514610091578063c5b0e6fb146100ba575b600080fd5b341561007257600080fd5b61007a6100e3565b005b341561008757600080fd5b61008f61049a565b005b341561009c57600080fd5b6100a46106a3565b6040518082815260200191505060405180910390f35b34156100c557600080fd5b6100cd6106a9565b6040518082815260200191505060405180910390f35b6000600160009054906101000a900473ffffffffffffffffffffffffffffffffffffffff1673ffffffffffffffffffffffffffffffffffffffff163373ffffffffffffffffffffffffffffffffffffffff16148061018e5750600260009054906101000a900473ffffffffffffffffffffffffffffffffffffffff1673ffffffffffffffffffffffffffffffffffffffff163373ffffffffffffffffffffffffffffffffffffffff16145b151561019957600080fd5b6000809054906101000a900473ffffffffffffffffffffffffffffffffffffffff169050600260009054906101000a900473ffffffffffffffffffffffffffffffffffffffff1673ffffffffffffffffffffffffffffffffffffffff163373ffffffffffffffffffffffffffffffffffffffff1614801561021c57506000600654145b156102e157426006819055508073ffffffffffffffffffffffffffffffffffffffff16630ed7193260035460026000604051602001526040518363ffffffff167c010000000000000000000000000000000000000000000000000000000002815260040180836000191660001916815260200182600381111561029b57fe5b60ff16815260200192505050602060405180830381600087803b15156102c057600080fd5b6102c65a03f115156102d157600080fd5b5050506040518051905050610402565b600160009054906101000a900473ffffffffffffffffffffffffffffffffffffffff1673ffffffffffffffffffffffffffffffffffffffff163373ffffffffffffffffffffffffffffffffffffffff1614801561034057506000600554145b1561040157426005819055508073ffffffffffffffffffffffffffffffffffffffff16630ed7193260035460036000604051602001526040518363ffffffff167c01000000000000000000000000000000000000000000000000000000000281526004018083600019166000191681526020018260038111156103bf57fe5b60ff16815260200192505050602060405180830381600087803b15156103e457600080fd5b6102c65a03f115156103f557600080fd5b50505060405180519050505b5b6000600554141580156104185750600060065414155b1561049757600260009054906101000a900473ffffffffffffffffffffffffffffffffffffffff1673ffffffffffffffffffffffffffffffffffffffff166108fc3073ffffffffffffffffffffffffffffffffffffffff16319081150290604051600060405180830381858888f19350505050151561049657600080fd5b5b50565b6000600160009054906101000a900473ffffffffffffffffffffffffffffffffffffffff1673ffffffffffffffffffffffffffffffffffffffff163373ffffffffffffffffffffffffffffffffffffffff1614806105455750600260009054906101000a900473ffffffffffffffffffffffffffffffffffffffff1673ffffffffffffffffffffffffffffffffffffffff163373ffffffffffffffffffffffffffffffffffffffff16145b151561055057600080fd5b6000809054906101000a900473ffffffffffffffffffffffffffffffffffffffff1690508073ffffffffffffffffffffffffffffffffffffffff16630ed71932600354600080604051602001526040518363ffffffff167c01000000000000000000000000000000000000000000000000000000000281526004018083600019166000191681526020018260038111156105e657fe5b60ff16815260200192505050602060405180830381600087803b151561060b57600080fd5b6102c65a03f1151561061c57600080fd5b5050506040518051905050600160009054906101000a900473ffffffffffffffffffffffffffffffffffffffff1673ffffffffffffffffffffffffffffffffffffffff166108fc3073ffffffffffffffffffffffffffffffffffffffff16319081150290604051600060405180830381858888f1935050505015156106a057600080fd5b50565b60055481565b600654815600a165627a7a72305820cb26627691cb7b2921fb27ebcaf218dc354babb7f3813d7da2b7ec0257a3684a0029a165627a7a7230582082b1a832abd370e8a81c882dfcc6726b019ab63355f83b6ea0bbe64072ce936d0029",
  "source": "pragma solidity ^0.4.17;\n\nimport \"./Escrow.sol\";\n\ncontract Store {\n    enum ProductStatus { Available, Processing, Shipping, Sold }\n\n    struct Product {\n        string name;\n        string category;\n        string imageLink;\n        string descLink;\n        uint price;\n        uint index;\n        ProductStatus status;\n    }\n\n    struct Order {\n        bytes32 productId;\n        address seller;\n        address buyer;\n        address escrow;\n    }\n\n    address owner;\n    mapping(bytes32 => Product) products;\n    mapping(bytes32 => Order) orders;\n    bytes32[] productIds;\n\n    event ProductCreated(\n        bytes32 id,\n        uint index,\n        string name,\n        string category,\n        string imageLink,\n        string descLink,\n        uint price,\n        ProductStatus status\n    );\n\n    event ProductUpdated(\n        bytes32 id,\n        uint index,\n        string name,\n        string category,\n        string imageLink,\n        string descLink,\n        uint price,\n        ProductStatus status\n    );\n\n    event OrderCreated(\n        bytes32 productId,\n        address seller,\n        address buyer,\n        address escrow\n    );\n\n    modifier onlyOwner {\n        require(msg.sender == owner);\n        _;\n    }\n\n    function Store() public {\n        owner = msg.sender;\n    }\n\n    function addProduct(\n        string name,\n        string category,\n        string imageLink,\n        string descLink,\n        uint price\n    )\n        public onlyOwner returns (uint)\n    {\n        bytes32 id = keccak256(name, category, imageLink, descLink, price);\n        require(!isProduct(id));\n\n        products[id].name = name;\n        products[id].category = category;\n        products[id].imageLink = imageLink;\n        products[id].descLink = descLink;\n        products[id].price = price;\n        products[id].index = productIds.push(id) - 1;\n        products[id].status = ProductStatus.Available;\n\n        ProductCreated(\n            id,\n            products[id].index,\n            name,\n            category,\n            imageLink,\n            descLink,\n            price,\n            ProductStatus.Available\n        );\n\n        return products[id].index;\n    }\n\n    function placeOrder(bytes32 id) public payable {\n        require(isProduct(id));\n        require(msg.value >= products[id].price);\n        require(products[id].status == ProductStatus.Available);\n        address seller = owner; // Only allow owner sell items for now\n        address buyer = msg.sender;\n        address escrow = address((new Escrow).value(msg.value)(buyer, seller, id));\n\n        orders[id].productId = id;\n        orders[id].seller = seller;\n        orders[id].buyer = buyer;\n        orders[id].escrow = escrow;\n\n        updateProductStatus(id, ProductStatus.Processing);\n\n        OrderCreated(id, seller, buyer, escrow);\n    }\n\n    function isProduct(bytes32 id) public view returns (bool) {\n        if (productIds.length == 0) {\n            return false;\n        }\n\n        return productIds[products[id].index] == id;\n    }\n\n    function getProduct(bytes32 id)\n        public\n        view\n        returns (\n            string,\n            string,\n            string,\n            string,\n            uint,\n            uint,\n            ProductStatus\n        )\n    {\n        require(isProduct(id));\n\n        return (\n            products[id].name,\n            products[id].category,\n            products[id].imageLink,\n            products[id].descLink,\n            products[id].price,\n            products[id].index,\n            products[id].status\n        );\n    }\n\n    function getProductCount() public view returns (uint) {\n        return productIds.length;\n    }\n\n    function getProductIdAt(uint index) public view returns (bytes32) {\n        return productIds[index];\n    }\n\n    function updateProductStatus(bytes32 id, ProductStatus status)\n        public returns (bool)\n    {\n        require(isProduct(id));\n\n        products[id].status = status;\n\n        ProductUpdated(\n            id,\n            products[id].index,\n            products[id].name,\n            products[id].category,\n            products[id].imageLink,\n            products[id].descLink,\n            products[id].price,\n            status\n        );\n\n        return true;\n    }\n}\n",
  "sourcePath": "/Users/nhahoang/sources/coderschool/blockchain/assignments/week2/contracts/Store.sol",
  "compiler": {
    "name": "solc",
    "version": "0.4.19+commit.c4cbbb05.Emscripten.clang"
  },
  "schemaVersion": "2.0.0",
  "updatedAt": "2018-03-23T19:49:11.900Z"
}